:100000000C9418020C9449020C9449020C94490275
:100010000C9449020C9449020C9449020C94490234
:100020000C9449020C9449020C9449020C94490224
:100030000C9449020C9449020C9449020C94490214
:100040000C9449020C9449020C9449020C94490204
:100050000C9449020C9449020C9449020C94B40E7D
:100060000C9449020C94870F0C945D0F0C94490278
:100070000C9449020C9449020C9449020C944902D4
:100080000C9449020C9449020C9449020C944902C4
:100090000C9449020C9449020C9449020C944902B4
:1000A0000C9449020C9449020C9449020C944902A4
:1000B0000C9449020C9449020C9449020C94490294
:1000C0000C9449020C9449020C9449020C94490284
:1000D0000C9449020C9449020C94280F0C94FE0EC7
:1000E0000C9449020C94F1020C94E6020C94F40472
:1000F0000C94EE020C94E6040C9401030C946B0334
:100100000C9421030C9409030C94F8030C94D00272
:100110000C9405030C94D0030C94EA020C940F0386
:100120000C942E050C9446130C94C6030C94750382
:100130000C941D030C9466030C945E030C945604FB
:100140000C94DA030C9413030C9489030C94B703F6
:100150000C9499030C94FB020C9493040C941703D5
:100160000C94CB020C948D050C9483040C943819D8
:100170000C94A3030C947F030C94E4030C94F702F7
:100180000C94AD030C94EE030C9491030C94E202D6
:100190006E616E00696E660000407A10F35A00A02E
:1001A000724E18090010A5D4E80000E87648170040
:1001B00000E40B54020000CA9A3B000000E1F50580
:1001C000000080969800000040420F000000A086CA
:1001D00001000000102700000000E80300000000FC
:1001E0006400000000000A000000000001000000A0
:1001F00000002C76D888DC674F0823DFC1DFAE59BA
:10020000E1B1B796E5E3E453C63AE651997696E84C
:10021000E6C28426EB898C9B62ED407C6FFCEFBCD0
:100220009C9F40F2BAA56FA5F490055A2AF75C93FB
:100230006B6CF9676DC11BFCE0E40D47FEF520E631
:10024000B500D0ED902E0300943577050080841E14
:10025000080000204E0A000000C80C333333330F6F
:10026000986E12831141EF8D2114893BE65516CF0C
:10027000FEE6DB18D1844B381BF77C1D901DA4BB18
:10028000E424203284725E228100C9F124ECA1E5CD
:100290003D27546F6F44656570004E6F4D656D6FFF
:1002A000727900496E76616C6964496E707574008C
:1002B000496E636F6D706C657465496E707574001E
:1002C000456D707479496E707574004F6B00CDCCBC
:1002D000CC3D0AD7233C17B7D13877CC2B32959534
:1002E000E6241FB14F0A000020410000C842004030
:1002F0001C4620BCBE4CCA1B0E5AAEC59D74CB0218
:10030000C002B002A3029A02920264657365726928
:10031000616C697A654A736F6E2829206661696C21
:1003200065643A200000000A0B02090C0D0E080754
:1003300003040100000000000000000000000000B5
:1003400000000000000000000000000000000000AD
:10035000001211100000000000000000000000006A
:100360000000000000000000000000000022002546
:100370000028002B002E003100340002010000058F
:100380000108010B0100002100240027002A002D94
:10039000003000330001010000040107010A0105DB
:1003A000050505070508080808020202020A0A08EE
:1003B0000804040404010101010101010103030314
:1003C0000303030303040707070C0C0C0C0C0C0CB1
:1003D0000C0202020206060606060606060B0B0BB8
:1003E0000B0B0B0B0B0102102020080810204010F3
:1003F00020408002010201080402010102040810E9
:100400002040808040201008040201800402018006
:10041000402010080402010804020101020408102F
:100420002040800102040810204080004613381943
:1004300011241FBECFEFD1E2DEBFCDBF00E00CBF65
:100440002BE0A6E8B5E001C01D92A33EB207E1F79C
:1004500015E0A0E0B2E0E2EEFFE300E00BBF02C077
:1004600007900D92A638B107D9F712E0C7E1D2E0A4
:1004700000E006C021970109802FFE010E944B1D5C
:10048000C631D10780E00807A9F70E94AD130C948C
:10049000DF1F0C9400009C012C593F4FFC0111926E
:1004A000CF01E217F307D1F70895FC01A089B189C4
:1004B00082E08C93A485B5851C92A685B78580E1E2
:1004C0008C93108EA489B58986E08C93A289B38918
:1004D0008C9180618C93A289B3898C9188608C9374
:1004E000A289B3898C9180688C930288F389E02D6E
:1004F00080818F7D8083089590E0FC01EB51FC4F5B
:10050000249181569C4FFC018491882399F090E0BE
:10051000880F991FFC01EB57FC4FA591B491FC018A
:10052000E559FC4F859194918FB7F894EC91E22BAB
:10053000EC938FBF0895282F30E0F901EB5DFC4F5D
:100540009491F901EB51FC4F449121563C4FF90134
:100550002491222309F435C0992311F1915092314D
:10056000F8F4E92FF0E08827E754FD4F8F4F0C9403
:100570004B1DEA02EE02CB02E202E602D002F102D9
:10058000F702FB020103050309030F031303D00263
:1005900017031D032103809180008F7780938000D3
:1005A000E22FF0E0EE0FFF1FE559FC4FA591B4914B
:1005B0008FB7F894EC91611148C040954E234C934D
:1005C0008FBF0895809180008F7DE8CF809180005B
:1005D000877FE4CF84B58F7784BDE2CF84B58F7DEC
:1005E000FBCF8091B0008F778093B000D9CF8091FE
:1005F000B0008F7DF9CF809190008F77809390002D
:10060000CFCF809190008F7DF9CF80919000877F30
:10061000F5CF8091A0008F778093A000C1CF80910B
:10062000A0008F7DF9CF8091A000877FF5CF8091CA
:1006300020018F7780932001B3CF809120018F7D9F
:10064000F9CF80912001877FF5CF4E2BB8CF1F9334
:10065000CF93DF93182FEB010E947C02209739F48F
:1006600060E0812FDF91CF911F910C949B02CF3FCF
:10067000D10511F461E0F5CFE12FF0E0EB5DFC4F27
:10068000E491E150E23108F0B3C0F0E08827E45B88
:10069000FC4F8F4F0C944B1D5E0366036B03750379
:1006A0007F03F803890391039903A303AD03B70301
:1006B000C603D003F803DA03E403EE0384B58068CD
:1006C00084BDC7BDDF91CF911F91089584B580622D
:1006D00084BDC8BDF7CF8091800080688093800082
:1006E000D0938900C0938800EDCF80918000806214
:1006F00080938000D0938B00C0938A00E3CF8091D9
:100700008000886080938000D0938D00C0938C001F
:10071000D9CF8091B00080688093B000C093B300BF
:10072000D1CF8091B00080628093B000C093B400BC
:10073000C9CF80919000806880939000D0939900F9
:10074000C0939800BFCF809190008062809390000A
:10075000D0939B00C0939A00B5CF809190008860A1
:1007600080939000D0939D00C0939C00ABCF80916C
:10077000A00080688093A0008091A0008F7B809370
:10078000A000D093A900C093A8009CCF8091A000A6
:1007900080628093A000D093AB00C093AA0092CF58
:1007A0008091A00088608093A000D093AD00C0939A
:1007B000AC0088CF80912001806880932001D09385
:1007C0002901C09328017ECF80912001806280930F
:1007D0002001D0932B01C0932A0174CF8091200176
:1007E000886080932001D0932D01C0932C016ACFA3
:1007F000C038D1050CF03ECF33CF3FB7F89480918D
:100800005D0690915E06A0915F06B091600626B5E8
:10081000A89B05C02F3F19F00196A11DB11D3FBF38
:10082000BA2FA92F982F8827BC01CD01620F711D07
:10083000811D911D42E0660F771F881F991F4A9501
:10084000D1F708958F929F92AF92BF92CF92DF928D
:10085000EF92FF926B017C010E94FD034B015C0152
:10086000C114D104E104F104B9F00E94FD03681938
:1008700079098A099B09683E73408105910580F3D7
:1008800021E0C21AD108E108F10888EE880E83E061
:10089000981EA11CB11CE4CFFF90EF90DF90CF9089
:1008A000BF90AF909F908F9008950895AF92BF92A0
:1008B000CF92DF92EF92FF920F931F93CF93DF932C
:1008C0006C017B018B01040F151FEB015E01AE185B
:1008D000BF08C017D10759F06991D601ED91FC917D
:1008E0000190F081E02DC6011995892B79F7C5019A
:1008F000DF91CF911F910F91FF90EF90DF90CF90FC
:10090000BF90AF900895FC01538D448D252F30E0AA
:10091000842F90E0821B930B541718F081509F4F47
:10092000089501970895FC01918D828D981759F0D3
:10093000A28DAE0FBF2FB11D5D968C91928D9F5FE2
:10094000928F90E008958FEF9FEF08952FB7F8945E
:100950008091610690916206A0916306B091640651
:100960002FBF80936D0690936E06A0936F06B09391
:10097000700685E696E00E94930497FF26C02FB785
:10098000F8948091610690916206A0916306B091FF
:1009900064062FBF40916D0650916E0660916F0600
:1009A00070917006841B950BA60BB70B40916906DE
:1009B00050916A0660916B0670916C0684179507DA
:1009C000A607B707B0F28FEF9FEF0895FC01918D56
:1009D000828D981731F0828DE80FF11D858D90E0A2
:1009E00008958FEF9FEF0895FC01918D828D981BE4
:1009F000892F90E0089585E696E00E94F40421E0B6
:100A0000892B09F420E0822F089582E898E00E9463
:100A1000F40421E0892B09F420E0822F0895FC01E1
:100A2000A48DA80FB92FB11DA35EBE4F9C91848DDC
:100A30008F5F848FA689B7899C93A089B1898C9197
:100A4000837080648C93938D848D981306C0028884
:100A5000F389E02D80818F7D808308950F931F930C
:100A6000CF93DF93EC0181E0888F9B8D8C8D981361
:100A700018C0E889F989808185FF13C09FB7F89471
:100A8000EE89FF896083E889F989808183708064B9
:100A900080839FBF81E090E0DF91CF911F910F9104
:100AA0000895062F1B8D1F5F8C8D81130CC00FB610
:100AB00007FCFACFE889F989808185FFF5CFCE015F
:100AC0000E940F05F1CFEB8DEC0FFD2FF11DE35EC2
:100AD000FE4F00839FB7F8941B8FEA89FB898081C2
:100AE0008062D6CF0F931F93CF93DF938C01D0E01A
:100AF000C0E0F801EC0FFD1F6491662341F082E82D
:100B000098E00E942E05892B11F02196F2CFCE019C
:100B1000DF91CF911F910F910895CF93DF93EC0157
:100B2000888D8823B9F0AA89BB89E889F9898C91D5
:100B300085FD03C0808186FD0DC00FB607FCF7CF91
:100B40008C9185FFF2CF808185FFEDCFCE010E9491
:100B50000F05E9CFDF91CF91089580E090E0892BD8
:100B600029F00E94050581110E94000080E090E0BC
:100B7000892B49F080E090E0892B29F00E94000049
:100B800081110E94000080E090E0892B49F080E014
:100B900090E0892B29F00E94000081110E94000042
:100BA00080E090E0892B29F00E94FB0481110C94D5
:100BB00000000895982F80336CF08A3324F08F352D
:100BC00024F08B3724F481E0089581341CF081E017
:100BD0009B350CF080E00895FC018685811114C0DE
:100BE000A185B285838594852FEF3FEFA817B907BC
:100BF00030F4CD010196928781872C9130E037FD4A
:100C000020E0258781E08687858508951F93CF930F
:100C1000DF93EC01162F0E94EC05811306C01E869F
:100C200081E0DF91CF911F91089580E0FACF0F937B
:100C30001F93CF93DF938C01EB018991882369F097
:100C4000C8010E94EC05882379F0FE01319790815C
:100C500098130DC0F8011686F0CF90E080E0DF9188
:100C6000CF911F910F91089582E090E0F8CF83E03B
:100C700090E0F5CFCF93DF93EC01CE010E94EC051D
:100C80008B304CF489305CF4882359F081E08887FC
:100C900090E080E00BC08D3011F08032B9F71E86F5
:100CA000ECCF8885811105C081E090E0DF91CF9184
:100CB000089582E090E0FACF0F931F93CF93DF93D4
:100CC0008C01C1E0D0E061E083E00E949B0264E619
:100CD00070E080E090E00E94220460E083E00E94E7
:100CE0009B0264E670E080E090E00E94220421967E
:100CF0000C171D0744F7DF91CF911F910F910895B5
:100D0000FC0124813581A9014F5F5F4F8681978166
:100D10004817590748F48281938155834483FC0125
:100D2000E20FF31F608308950190F081E02D81E0D0
:100D3000808708959F92AF92BF92CF92DF92EF92F9
:100D4000FF920F931F93CF93DF9300D01F921F92B8
:100D5000CDB7DEB78C010E94EC05D82ED8011E96C7
:100D60001C92F12CE12C60EFC62EC8010E94EC050C
:100D7000F8011686D81609F4B4C0811113C082E0B8
:100D800090E00F900F900F900F900F90DF91CF9108
:100D90001F910F91FF90EF90DF90CF90BF90AF9099
:100DA0009F9008958C3509F09AC0C8010E94EC0507
:100DB000882329F3E8E1F2E0853709F084C0D801FF
:100DC0001E961C9254E0952EB12CA12CC8010E94B5
:100DD000EC058823A1F2813434F48053803130F063
:100DE00083E090E0CECF8F7D8753F8CF44E0AA0C0C
:100DF000BB1C4A95E1F7A82AF80116869A9491102F
:100E0000E5CFC501985D8115944020F47501F3E0AC
:100E1000FF22ABCFC5019C5D81159440A8F483E00F
:100E2000B822B701762F6627770F770F6A297B29BB
:100E300090E080E00196603871058105910540F4ED
:100E4000C8010E94800691CFB50190E080E0F3CF09
:100E50001982262F2F7320682A8326E0969587957E
:100E6000779567952A95D1F76032710580F4606CAB
:100E70006B835E01A4E0AA0EB11CD5016E915D01E9
:100E8000662309F472CFC8010E948006F6CF262F90
:100E90002F7320682B8386E0769567958A95E1F716
:100EA0006031710538F4606E6C835E01B5E0AB0EA5
:100EB000B11CE3CF60686C83CD825E01E6E0AE0ECC
:100EC000B11CDBCF32969081992309F489CF891325
:100ED000F9CF8181882309F483CFF8011686682F22
:100EE000AFCF0190F081E02D8085882319F084E058
:100EF00090E047CF90E080E044CF4F925F926F92B6
:100F00007F928F929F92AF92BF92CF92DF92EF9299
:100F1000FF920F931F93CF93DF93EB01DC012C9192
:100F20002B32D9F12D32D1F50196FF24F394FC0137
:100F3000208130ED320F3A3018F02E3209F042C1E4
:100F40008C0160E070E0CB01F801219130ED832E3F
:100F5000820E39E0381520F16A3949E974078407AF
:100F600049E1940738F5AAE0B0E09B01AC010E948A
:100F7000DC1B912CB12CA12C240135014094509400
:100F800060947094461657066806790698F0680DC6
:100F9000791D8A1D9B1D8F01D7CF0196F12CC7CFDC
:100FA000211108C0FF20E9F161307105810550E889
:100FB0009507A0F0E12CBAE08B2E912CA12CB12C3E
:100FC0006115710530E883079105B0F1A501940121
:100FD0000E94291DCA01B901E394F2CF2C81207827
:100FE0002A602C839B01AC0188279927DC01821B96
:100FF000930BA40BB50B88839983AA83BB838F2D96
:10100000DF91CF911F910F91FF90EF90DF90CF90E4
:10101000BF90AF909F908F907F906F905F904F9018
:1010200008952C81207828602C83688379838A83B3
:101030009B83FF24F394E3CFF801D8012D918D0118
:1010400030ED320F3A3010F4E394F6CF2E3201F542
:101050008F010F5F1F4FF8010F5F1F4F2081A0ED21
:10106000DA2ED20EB9E0BD1598F06C3CECEC7E07A0
:10107000ECE08E07910578F7AAE0B0E09B01AC01A7
:101080000E94DC1B6D0D711D811D911DEA94E3CF43
:1010900020812F7D10E000E0253409F05BC0218124
:1010A0002D32D1F53296CC24C394DF0110E000E05C
:1010B0002E2D0E2C000C330B5AE0B52EFD01DD90C9
:1010C00040ED4D0D4A3008F040C0B09EA001B19EE9
:1010D000500D11240D2DDD0C110B00531109040FBF
:1010E000151FA801420F531F473251053CF38C8155
:1010F000CC20C9F040E050E060E070E8F11003C09F
:1011000040E050E0BA0180788C608C83488359833A
:101110006A837B83FC2C73CF2B3219F03196C12C60
:10112000C4CF3296FCCF40E050E060E87FEFF11092
:1011300004C040E050E060E87FE780788C608C83FA
:10114000488359836A837B8374CFCC2019F011952F
:10115000019511092081211135C00E0D111DE7FCEB
:101160001A950E94BD1A36EEC32E32E0D32E101609
:1011700011063CF01195019511094EECC42E42E088
:10118000D42EE12C0115110591F000FF0CC024E0D4
:10119000E29EF0011124EC0DFD1D25913591459144
:1011A00054910E941E1B15950795E394EBCFF11007
:1011B00090582C8120782C602C83688379838A83D3
:1011C0009B8337CFF12C1BCFCF93DF9300D01F929F
:1011D0001F92CDB7DEB7FC0194819F77963091F0D6
:1011E00030F4943020F560E070E0CB0111C09A300B
:1011F000B9F09C3049F19830B1F7608171818281FA
:10120000938104C0608170E090E080E00E94BD1A8C
:101210000F900F900F900F900F90DF91CF91089546
:1012200060817181828193810E94BF1AF1CF808198
:1012300091811D82BE016F5F7F4F0E947D07CE01AD
:1012400001960E94E408E4CF6081718182819381DC
:10125000DFCFCF92DF92EF92FF92CF93DF9300D058
:101260001F921F92CDB7DEB7FC01892B39F0848124
:101270008F778630B9F028F4843088F590E080E0EC
:1012800013C08A30E9F08C30B9F18830B9F7808129
:101290009181A281B381811520E89207A105B10552
:1012A00068F702C0808190E00F900F900F900F9030
:1012B0000F90DF91CF91FF90EF90DF90CF90089546
:1012C00080819181A281B381AC01BD0150586F4FE3
:1012D0007F4F411551056140710580F6E5CF808152
:1012E00091811D82BE016F5F7F4F0E947D07CE01FD
:1012F00001960E942909D8CFC080D180E280F38076
:1013000020E030E040E057ECC701B6010E940B1D21
:1013100087FDB4CF20E03EEF4FEF56E4C701B601A2
:101320000E94B81A18160CF4A9CFC701B6010E9482
:10133000D51CCB01B9CFFC01892B31F084818F778B
:10134000843029F0853019F090E080E008958081A4
:1013500091810895CF93DF93DC01EB01EC81FD8156
:101360008A819B810896E817F90740F481E0888715
:10137000F0E0E0E0CF01DF91CF9108953897FD8351
:10138000EC833097B9F31296CD91DC9113972097A7
:1013900091F0CF018C1B9D0B23E0959587952A95A5
:1013A000E1F78D831396FC93EE93129715821482C6
:1013B00017821682DFCF1196FC93EE93F3CFEF9254
:1013C000FF920F931F93CF93DF937C01DC01129662
:1013D0002D913C911397ED91FC91AB01420F531F5E
:1013E000EF01C60FD71FC217D307A0F48881811160
:1013F0000BC0E901CF014C175D0751F00991DC01E9
:101400001D91CD010117B9F381918111FDCFE8CF75
:10141000309751F4620F731FCB010196F70193834C
:101420008283DB011C92F901CF01DF91CF911F91E3
:101430000F91FF90EF900895FB0101900020E9F7D4
:101440003197AF01461B570B0C9456048F929F9215
:10145000AF92BF920F931F93CF93DF93CDB7DEB7B9
:10146000A1970FB6F894DEBF0FBECDBF19A24230D0
:1014700008F44AE08E010F5D1F4F842E912CB12C91
:10148000A12CA50194010E94291DE62FB901CA01D2
:10149000EA3004F5E05DD801EE938D01232B242B77
:1014A000252B79F790E080E0109729F0BD0182E8C4
:1014B00098E00E941C0AA1960FB6F894DEBF0FBEFA
:1014C000CDBFDF91CF911F910F91BF90AF909F90B3
:1014D0008F900895E95CDFCFCF92DF92EF92FF9279
:1014E000CF93DF936C01990FEE08FF08F7FE21C040
:1014F0006DE282E898E00E942E05EC0166277727CE
:10150000CB016C197D098E099F094AE00E94260AC9
:10151000C80FD91F69E272E082E898E00E941C0AB5
:101520008C0F9D1FDF91CF91FF90EF90DF90CF90B8
:1015300008954AE0C701B6010E94260AEC01EACFED
:101540004F925F926F927F928F929F92AF92BF92D3
:10155000CF92DF92EF92FF920F931F93CF936B0185
:101560007C01742EAC019B010E94101D6CE272E0A4
:10157000811126C046015701E894B7F82FEF3FEFDD
:101580004FE75FE7C501B4010E94101D81110CC037
:101590002FEF3FEF4FE75FE7C501B4010E94B81A94
:1015A00060E372E0181664F02FEF3FEF4FE75FE45F
:1015B000C701B6010E940B1D1816ACF464E372E07B
:1015C00082E898E0CF911F910F91FF90EF90DF900C
:1015D000CF90BF90AF909F908F907F906F905F90D3
:1015E0004F900C941C0A2FEF3FEF4FE75FECC701C1
:1015F000B6010E94B81A87FDE1CF20E030E0A901D2
:10160000C701B6010E94B81A10E000E087FF0AC0C7
:101610006DE282E898E00E942E058C01F7FAF094C2
:10162000F7F8F094C0E060E070E080E09FE37C16A3
:1016300041F020E030E040E251E40E94631CCF5FC3
:10164000F6CFA70196010E94F71B2B013C010E94D7
:10165000DC1C4B015C014AE00E94260A7C01E00E82
:10166000F11ECC23C1F1C501B4010E94BD1A9B013A
:10167000AC01C301B2010E94F61B4B015C016EE29A
:1016800082E898E00E942E05E80EF91EC15018F17C
:1016900020E030E040E251E4C501B4010E941E1B8D
:1016A0002B013C010E94DC1C4B01B12CA12C4AE017
:1016B000C501B4010E94260AE80EF91EC501B40155
:1016C0000E94BD1A9B01AC01C301B2010E94F61B2E
:1016D0004B015C01DBCFC701CF911F910F91FF90B0
:1016E000EF90DF90CF90BF90AF909F908F907F90C2
:1016F0006F905F904F900895CF93DF93FC014481EA
:1017000055816081718182E898E00E945604EC0165
:1017100069E272E082E898E00E941C0A8C0F9D1F2B
:10172000DF91CF9108950C941C0ACF93DF9361153C
:10173000710591F1FC0180819181009779F1FC01A3
:10174000A681B781FB0101900020E9F73197E61BE4
:10175000F70BD0E0C0E0109739F0ED0109900020C0
:10176000E9F72197CA1BDB0BEC17FD0751F4EB01DE
:10177000E60FF71FEC17FD0789F039912D9132170D
:10178000C9F3FC012581222339F0F8E02F029001F2
:101790001124820F931FD1CF90E080E0DF91CF9191
:1017A00008959F92AF92BF92CF92DF92EF92FF92F5
:1017B0000F931F93CF93DF93EC017B01D42E0E94F4
:1017C0003A068C01892B09F052C0CE010E94EC052B
:1017D000863609F455C194F5873229F08B35D1F15D
:1017E000823209F056C1E881F981828193819B831D
:1017F0008A838481958122813381821B930B9F830D
:101800008E831D821C82892B11F481E08087CE019A
:101810000E949A068C01892B51F5AC80BD80B501E0
:10182000888199810E94DF09F70124812078256051
:10183000248391838083B382A28219C0843709F400
:1018400008C18B3709F453C08E3609F022C16DE30D
:1018500072E008C1F70184818078806484831182FA
:10186000108213821282D1100FC005E010E0C8016F
:10187000DF91CF911F910F91FF90EF90DF90CF906C
:10188000BF90AF909F9008951E86CE010E943A06A9
:10189000009709F02DC16DE5CE010E940606811169
:1018A000E6CFDA946F857889C7010E94AA0900976C
:1018B00009F46EC04D2DBC01CE010E94D10B0097E2
:1018C00009F016C1CE010E943A06009709F010C136
:1018D0006DE5CE010E9406068111C9CF6CE2CE01F2
:1018E0000E9406068111DECF03E010E0C0CFF701B1
:1018F00084818078806284831182108213821282B4
:10190000DD2009F4B2CF1E86CE010E943A06009770
:1019100009F0EEC06DE7CE010E9406068111A7CF47
:10192000BB24B394DA94E881F981828193819B830B
:101930008A838481958122813381821B930B9F83CB
:101940008E831D821C82892B09F4B086CE010E94F1
:10195000EC05873201F18232F1F0CE010E94EC05F4
:10196000182F0E94DA05882309F4BECF1E86612F46
:10197000CE010E948006CE010E94EC05182F0E9425
:10198000DA058111F3CFE881F9818085882351F050
:1019900004E010E06CCFCE010E949A068C01892BE6
:1019A00009F065CFCE010E943A068C01892B09F01F
:1019B0005ECF6AE3CE010E940606882309F494CF25
:1019C000EA81FB818C819D81E80FF91F10820C81D7
:1019D0001D816A817B81C7010E94950BBC01892B07
:1019E000A1F4B801888199810E94DF098C016F857B
:1019F0007889C7010E94AA09FC01892B49F28481D8
:101A00008068848317830683BF014D2DCE010E9419
:101A1000D10B8C01892B09F02ACFCE010E943A0606
:101A20008C01892B09F023CF6DE7CE010E940606B9
:101A300081111DCF6CE2CE010E940606882309F4B5
:101A400053CFCE010E943A068C01892B09F46BCF4B
:101A50000ECFF701848180788660848381E0808363
:101A600068E372E0CE01DF91CF911F910F91FF905B
:101A7000EF90DF90CF90BF90AF909F900C9417069F
:101A8000F701848180788660848310826BE675E03C
:101A9000E9CFCE010E94EC055E01F1E1AF0EB11C71
:101AA000D12C9A2CCB2C803374F08A3374F49FE3BE
:101AB000D91699F01E86D394F50181935F01CE016A
:101AC0000E94EC05F0CF8B3291F393ED980F92309A
:101AD00070F3982F9F7D953451F3CD0DD11D198A48
:101AE000B701892D9C2D0E947D078111C0CEFCCEAF
:101AF0008C01BDCEFC01248125FF04C0009711F0AC
:101B00000C94950B90E080E00895009711F00C94F0
:101B10007A0D90E080E00895CF93DF93EC01888107
:101B20009981009711F00E94031E198218821D826C
:101B30001C821B821A82DF91CF910895FC01808163
:101B40009181009711F00C94031E08950F931F9339
:101B5000CF93DF938C01EB01FC0180819181009791
:101B6000E1F06881798161157105A9F042815381A5
:101B70002C813D814217530770F00E94811F8C8198
:101B80009D81F801958384831D821C82DF91CF9112
:101B90001F910F9108950E94031E88819981F80179
:101BA000918380838A819B81938382838C819D81B1
:101BB00095838483198218821B821A82E5CF0F9342
:101BC0001F93CF93DF93EC0188819981009759F09F
:101BD0002A813B812617370730F081E0DF91CF91D2
:101BE0001F910F9108958B016F5F7F4F0E948C1E94
:101BF000009759F0998388831B830A832C813D8148
:101C0000232B59F7FC011082E8CF80E0E7CFEF9259
:101C1000FF920F931F93CF93DF93EC017B018A0117
:101C2000BA010E94DF0D81110BC0CE010E948C0D04
:101C3000CE01DF91CF911F910F91FF90EF9008950A
:101C40001D830C83B701888199810E94811FF0CF89
:101C5000FC0111821082138212821582148250E0DC
:101C600040E068E272E00C94070E8F929F92AF9270
:101C7000BF92CF92DF92EF92FF920F931F93CF9379
:101C8000DF937C018B01EA018FB7F89480906106A5
:101C900090906206A0906306B09064068FBF86E8BD
:101CA00095E00E944B02B70185E696E00E94930BF7
:101CB00085E696E00E948D0588EE93E0C89F60015E
:101CC000C99FD00CD89FD00C1124F12CE12CD0E06E
:101CD000C0E085E696E00E94F404892B89F085E651
:101CE00096E00E9493049E012F5F3F4FCA57DA4F40
:101CF00088832436310514F030E020E0E901E9CF93
:101D0000B80186E895E00E94881F892BB9F0B801D8
:101D100086E895E00E94881F21E0892B09F420E0E5
:101D2000822FDF91CF911F910F91FF90EF90DF9065
:101D3000CF90BF90AF909F908F9008952FB7F89459
:101D40008091610690916206A0916306B09164064D
:101D50002FBF88199909AA09BB09C816D906EA062E
:101D6000FB06A8F29E01CACF1F920F920FB60F92E8
:101D700011242F933F938F939F93AF93BF938091A1
:101D8000610690916206A0916306B091640630915D
:101D90005C0623E0230F2D3758F50196A11DB11DD8
:101DA00020935C068093610690936206A09363067D
:101DB000B093640680915D0690915E06A0915F06E7
:101DC000B09160060196A11DB11D80935D069093B0
:101DD0005E06A0935F06B0936006BF91AF919F919E
:101DE0008F913F912F910F900FBE0F901F901895DC
:101DF00026E8230F0296A11DB11DD2CF1F920F928C
:101E00000FB60F9211240BB60F922F933F934F935F
:101E10005F936F937F938F939F93AF93BF93EF9352
:101E2000FF9385E696E00E940F05FF91EF91BF9129
:101E3000AF919F918F917F916F915F914F913F9162
:101E40002F910F900BBE0F900FBE0F901F90189503
:101E50001F920F920FB60F9211240BB60F922F9371
:101E60008F939F93EF93FF93E0917506F091760621
:101E70008081E0917B06F0917C0682FD1CC0908100
:101E800080917E068F5F20917F06821741F0E0915E
:101E90007E06F0E0EB59F94F958F80937E06FF9117
:101EA000EF919F918F912F910F900BBE0F900FBECE
:101EB0000F901F9018958081F2CF1F920F920FB64E
:101EC0000F9211240BB60F922F933F934F935F9372
:101ED0006F937F938F939F93AF93BF93EF93FF93F2
:101EE00082E898E00E940F05FF91EF91BF91AF91BA
:101EF0009F918F917F916F915F914F913F912F9122
:101F00000F900BBE0F900FBE0F901F9018951F9251
:101F10000F920FB60F9211240BB60F922F938F933F
:101F20009F93EF93FF93E0919208F0919308808143
:101F3000E0919808F091990882FD1CC090818091F1
:101F40009B088F5F20919C08821741F0E0919B08CD
:101F5000F0E0EE57F74F958F80939B08FF91EF913C
:101F60009F918F912F910F900BBE0F900FBE0F90EE
:101F70001F9018958081F2CF2F923F924F925F92DF
:101F80006F927F928F929F92AF92BF92CF92DF9289
:101F9000EF92FF920F931F93CF93DF93CDB7DEB7EE
:101FA0002F970FB6F894DEBF0FBECDBF6C011B019B
:101FB0005A01FC011782168283819E012F5F3F4FD9
:101FC000490181FDD2C08FEF9FEFEEC2F12C512C61
:101FD00000E0003238F48B3209F190F48032F9F0ED
:101FE000833209F107FD34C020ED280F2A3020F597
:101FF00006FF1BC0FAE0FF9E200D1124F22E05C043
:102000008D3279F0803371F70160F10193FD859194
:1020100093FF81911F018111DCCF1AC0026004601F
:10202000F4CF0860F2CF0061F0CF3AE0539E200D6C
:102030001124522E0062E9CF8E3221F406FDB1C286
:102040000064E3CF8C3611F40068DFCF8836E9F204
:102050009BEB980F933008F05FC00061805E06FD37
:1020600002C046E0F42E102F1F73853609F05BC0C6
:10207000106417FF61C08F2D9BE39F1508F48BE35D
:1020800044244394480E27E03501F4E06F0E711CA0
:10209000F5016081718182819381042DA4010E94E8
:1020A0003C195C01F981FC87F0FF03C00DE2F3FFEE
:1020B00007C00BE211FD04C0012F047012FD00E205
:1020C0002C852C70E22E09F46BC00111D8C2F3E00C
:1020D000E12CF515A0F483E0E52CE81A13FD08C007
:1020E000B60180E290E00E942A1AEA94E110F8CF4B
:1020F000002329F0B601802F90E00E942A1A3C8527
:1021000020E9A22E21E0B22E33FD04C094E9A92ECD
:1021100091E0B92E107122C09BE9980F933008F01E
:1021200047C10F7E9CCF863611F41068A2CFFF20E6
:1021300009F49FCFFA949DCFE7E02F2DEF1518F407
:1021400027E037E0F32E412C9FCF11118052B601CA
:1021500090E00E942A1A8FEFA81AB80AF50184911C
:102160008111F3CFE11084C25301F6019381F10193
:1021700093FD859193FF81911F01882309F411C27A
:10218000853241F493FD859193FF81911F01853242
:1021900009F01CCFB60190E00E942A1A3501E4CF65
:1021A00017FF6FC04A0CFC85F4FF04C08A8181339D
:1021B00009F44A9414140CF086C028E0241510F495
:1021C00088E0482E85E090E017FF06C0C501B7FE05
:1021D00002C090E080E0019601110196FF2031F0ED
:1021E0002F2D30E02F5F3F4F820F931F5816190697
:1021F00019F014F0E52CE81A812F897011F4E11020
:1022000067C0002329F0B601802F90E00E942A1AAF
:1022100013FD02C0E11063C017FF7CC08501B7FE4B
:1022200002C010E000E0C501841991092C016F2D56
:1022300070E0EE27FF27E61BF70BFF87EE870F3FC7
:10224000100729F4B6018EE290E00E942A1AA01627
:10225000B1060CF44BC0401651060CF047C0F50116
:10226000E01BF10BE80DF91D8181015011092E854C
:102270003F8502171307E4F1B60190E00E942A1A85
:10228000DECF16FD9FCFEF2DF0E0EA15FB0534F011
:102290003CEFA3163FEFB3060CF010683296E80D42
:1022A000F91D01C0FA94FF2019F082918033D1F317
:1022B00017FF88CF442443944F0CFA141B0431F0C9
:1022C0002CF0FA187FCF442443947CCFF12C7ACFA2
:1022D000B60180E290E00E942A1AEA9490CFB601FB
:1022E00080E390E00E942A1AEA9494CF80E3BDCF65
:1022F000A016B10641F49A81963350F4953319F43F
:102300003C8534FF05C0B60190E00E942A1A2ACF0E
:1023100081E3F9CF8A81813319F09C859F7E9C8768
:10232000B60190E00E942A1AFF20A9F0B6018EE2C1
:1023300090E00E942A1AF394F394E2E001E00E0F79
:10234000E80DF92DF11D8081B60190E00E942A1A56
:10235000E02F0F11F3CF85E690E014FF02C085E473
:1023600090E0B6010E942A1AB7FC06C0A114B1047D
:10237000C1F4EC85E4FF15C0B194A194B1088DE2DD
:10238000B60190E00E942A1A80E32AE0A216B10466
:1023900054F4B60190E00E942A1AB601C501C09615
:1023A000B4CF8BE2EDCF8F5FFAE0AF1AB108EDCF7B
:1023B0008336C9F0833771F1833509F05BC035018D
:1023C000F2E06F0E711CF501A080B1806F2D70E0FE
:1023D00006FD02C06FEF7FEFC5010E94141A9D87B2
:1023E0008C8700680DC0350132E0630E711CF50169
:1023F0008081898321E030E03D872C8754010F776D
:1024000003FD06C02C853D855216130609F0A8F47D
:10241000E52C2BC0350132E0630E711CF501A08064
:10242000B1806F2D70E006FD02C06FEF7FEFC50138
:102430000E941F1A9D878C87E2CFB60180E290E050
:102440000E942A1A5A94DECFF50107FD859107FFF5
:1024500081915F01B60190E00E942A1AE110EA948E
:102460008C859D8501979D878C87EC85FD85EF2B5D
:1024700059F778CE843619F0893609F074C03501E1
:1024800007FF66C0F4E06F0E711CF5016081718179
:1024900082819381102F1F7697FF08C090958095B9
:1024A000709561957F4F8F4F9F4F10682AE030E005
:1024B000A4010E945A1AA82EA818BA2C012F16FFA0
:1024C0000AC00E7FAF1438F414FF04C012FD02C01E
:1024D000012F0E7EBF2C04FFA3C0FE01EA0DF11DEB
:1024E0008081803309F095C0097EF02FF870EF2EBF
:1024F00003FDA5C000FF9FC0FA2CB51410F4F50C25
:10250000FB1804FFA2C0B60180E390E00E942A1AE3
:1025100002FF09C088E790E001FF02C088E590E073
:10252000B6010E942A1AAF1408F49BC0AA940A2D7F
:1025300010E00F5F1F4F080D191DF80182918F01E8
:10254000B60190E00E942A1A80169106B1F70ACED1
:10255000F2E06F0E711CF50160817181072E000C95
:10256000880B990B97CF102F8537A9F41F7E2AE08F
:1025700030E0350117FF44C0F4E06F0E711CF50127
:102580006081718182819381A4010E945A1AA82ED0
:10259000A8181F7792CF197F8F3679F1F0F488351C
:1025A00039F1F601868197812F960FB6F894DEBF38
:1025B0000FBECDBFDF91CF911F910F91FF90EF9094
:1025C000DF90CF90BF90AF909F908F907F906F9053
:1025D0005F904F903F902F900895803739F0883763
:1025E00001F714FD146020E130E0C3CF1061F9CF92
:1025F00004FD166020E132E0BCCF28E030E0B9CF26
:10260000F2E06F0E711CF5016081718190E080E055
:10261000BBCF02FD02C0B39468CFB394B39465CF2F
:10262000802F867809F461CFF6CFB60180E290E082
:102630000E942A1AB394B514C0F3E12C62CFE52CA2
:10264000EB18B51408F45DCFF8CF802F867809F425
:102650006ACF8BE201FF80E207FD8DE2B60190E0D8
:1026600060CFB60180E390E00E942A1AFA945BCF13
:10267000B60180E290E00E942A1AEA9473CD24E029
:10268000E12C251508F036CD84E026CDE5E6F6E010
:102690001382128248EE53E060E070E04483558379
:1026A000668377838AE092E09183808325E331E03B
:1026B0003587248724E331E03787268720E331E01C
:1026C000318B208B21E331E0338B228B22E331E00D
:1026D000358B248B26E331E0378B268B118E128EBF
:1026E000138E148EE2E8F8E013821282448355833D
:1026F000668377839183808385EC90E095878487D8
:1027000084EC90E09787868780EC90E0918B808BBB
:1027100081EC90E0938B828B82EC90E0958B848BA4
:1027200086EC90E0978B868B118E128E138E148E12
:1027300089ED9BE00E94280EEFE9FAE08DEA9AE02D
:10274000918380839383828389ED9BE09583848347
:1027500097838683108615860895CF93DF93CDB730
:10276000DEB7C957D1090FB6F894DEBF0FBECDBF93
:10277000789484B5826084BD84B5816084BD85B55C
:10278000826085BD85B5816085BD80916E00816068
:1027900080936E001092810080918100826080930E
:1027A0008100809181008160809381008091800010
:1027B0008160809380008091B10084608093B1003B
:1027C0008091B00081608093B00080919100826020
:1027D000809391008091910081608093910080911D
:1027E00090008160809390008091A100826080932E
:1027F000A1008091A10081608093A1008091A00040
:1028000081608093A00080912101826080932101EA
:10281000809121018160809321018091200181605C
:102820008093200180917A00846080937A00809167
:102830007A00826080937A0080917A008160809330
:102840007A0080917A00806880937A001092C100AB
:1028500085E696E00E94550282E898E00E945502C3
:10286000CE0101960E94280E87E00E947C0288E03B
:102870000E947C0289E00E947C028DE00E947C0222
:1028800081E090E00E945C06F7ECEF2EF2E0FF2E74
:10289000A3EDCA2EA2E0DA2E270156013701E0EEA1
:1028A0008E2EE2E09E2E64E6262E74E6372E4AE057
:1028B00050E062E472E085E492E00E94350E8823E5
:1028C000B1F344E150E062E472E089E492E00E94F6
:1028D000350E882361F368E873E180E090E00E94A0
:1028E00022044AE050E062E472E084E592E00E9453
:1028F000350E8823E1F24AE050E062E472E082E6BD
:1029000092E00E94350E882391F28AEE95E00E94B3
:102910004B0220E732E03F932F9389E792E09F93A9
:102920008F93ECE7F2E0FF93EF931F922F920AEE62
:1029300015E01F930F930E94A21F44E150E06BE843
:1029400072E0C8010E94350E0FB6F894DEBF0FBECC
:10295000CDBF882309F4ABCF82E090E00E945C06F3
:10296000C8010E944B028EE992E09F938F93FF92E1
:10297000EF92DF92CF929F928F921F923F921F937E
:102980000F930E94A21F4AE050E062E472E0C80187
:102990000E94350E0FB6F894DEBF0FBECDBF882360
:1029A00009F485CFC8010E944B0286EF92E09F9305
:1029B0008F93BF92AF928BEF92E09F938F931F9272
:1029C0003F921F930F930E94A21F4AE050E062E4DF
:1029D00072E0C8010E94350E0FB6F894DEBF0FBE3C
:1029E000CDBF882309F45FCFC8010E944B027F92BC
:1029F0006F928BE393E09F938F931F923F921F936D
:102A00000F930E94A21F4AE050E062E472E0C80106
:102A10000E94350E0FB6F894DEBF0FBECDBF8823DF
:102A200009F43DCF4AE050E062E472E085E793E0CC
:102A30000E94350E882309F432CF4AE050E062E468
:102A400072E08BE893E00E94350E882309F427CFCB
:102A500044E150E061EA73E08CEB93E00E94350EB4
:102A6000882309F41CCFC8010E944B02DF92CF9249
:102A7000FF92EF928AEC93E09F938F931F9254E61C
:102A8000952E9F921F930F930E94A21F4AE050E041
:102A900062E472E0C8010E94350E0FB6F894DEBF02
:102AA0000FBECDBF882309F4FACEC8010E944B02A5
:102AB000BF92AF925F924F928DEF93E09F938F936F
:102AC0001F929F921F930F930E94A21F4AE050E013
:102AD00063E374E0C8010E94350E0FB6F894DEBFC0
:102AE0000FBECDBF81119CC384E090E00E945C06C4
:102AF0004AE050E062E472E082E594E00E94350E24
:102B0000CECEBE016F5F7F4FCE0188599F4F0E948E
:102B1000A60DCE0101960E949E0DAE964EAD5FAD04
:102B2000AE974115510581F0AA966EAD7FADAA977B
:102B3000DB018C91882341F089ED9BE061157105E3
:102B400009F417C20E94070E89ED9BE00E947C0BDE
:102B5000A4961FAE1EAEA497A6961FAE1EAEA69755
:102B6000A8961FAE1EAEA8976091D90B7091DA0B94
:102B70006115710549F04091DD0B5091DE0BCE01DE
:102B80008E599F4F0E94070EA896AEACBFACA89777
:102B9000A114B10409F4F0C1A496CEACDFACA497A3
:102BA0006BE770E0C6010E94761F009709F4E4C14C
:102BB0008C199D097C01A816B90628F09A2D8B2D39
:102BC0005701E92EF82ECE0101960E94280EA896F4
:102BD000CEACDFACA897AC14BD0450F5EC14FD04EA
:102BE00008F46701A496EEADFFADA497EC0DFD1DB2
:102BF000F0801082A4966EAD7FADA4976A0D7B1D08
:102C00006115710509F4BBC1FB0101900020E9F7D2
:102C10003197AF01461B570BCE0101960E94070E5C
:102C2000A4968EAD9FADA497C80ED91EF601F08272
:102C3000BE016F5F7F4FCE018E599F4F0E94A60D40
:102C4000CE0101960E949E0DCE018E599F4F0E948B
:102C50007C0BA4964EAD5FADA497A8968EAD9FADAC
:102C6000A897840F951F20919F0A3091A00A309356
:102C7000A20A2093A10A2091A50A3091A60A3093B6
:102C8000A40A2093A30A1092A70A2091AC0A2078E4
:102C90002093AC0A2FE93AE06C963FAF2EAF6C97C9
:102CA00028E0FE01E65AFF4FDE01AE5ABF4F019009
:102CB0000D922A95E1F728E0FE01EE5AFF4FDE0162
:102CC000119601900D922A95E1F719865B874A8744
:102CD0009D878C871F864FE95AE0598B488B4AE0C5
:102CE00068EA7AE0CE0101960E94D10B7C01892B23
:102CF00059F48E85882309F49EC28091AC0A83FF23
:102D00009AC243E0E42EF12C8AE093E00E9472051F
:102D1000F701EE0FFF1FE250FD4F859194910E9445
:102D2000720569E272E082E898E00E941C0AEA9665
:102D30002CAD3DAD4EAD5FADEA9720935806309374
:102D4000590640935A0650935B06CE018E599F4F09
:102D50000E949E0D20E030E0A901EA966CAD7DADA9
:102D60008EAD9FADEA970E94B81A81110CC080E029
:102D700090E0A0E8BFE38093580690935906A09393
:102D80005A06B0935B0662EC74E082E898E00E9419
:102D9000930B609158067091590680915A06909154
:102DA0005B0642E00E94A00A69E272E082E898E0D5
:102DB0000E941C0A209158063091590640915A06EB
:102DC00050915B0660E070E080E89FE30E94631C26
:102DD00020E030E04AE754E40E941E1B0E94D51C0C
:102DE0004B017B0169E075E082E898E00E94930B5B
:102DF000C4010E946C0A8091560690915706892B57
:102E000091F08091540690915506892B61F06CE108
:102E100075E082E898E00E941C0A69E272E082E8AC
:102E200098E00E941C0AC401F7FC019695958795CD
:102E30009C01990F440B550BE6962CAF3DAF4EAF5E
:102E40005FAFE697C701B8010E94151DCB01770F50
:102E5000AA0BBB0BE2968CAF9DAFAEAFBFAFE297B4
:102E600085E696E00E94F404892B09F091C1A090B8
:102E70005206B0905306C0905006D0905106E09094
:102E80004E06F0904F068091560690915706892B7A
:102E900009F442C1912C812C512C412C712C612CB4
:102EA00095E1292E312CC301B8010E94151D89E03E
:102EB0000E942703C201B8010E94151D87E00E94ED
:102EC0002703C401B8010E94151D88E00E94270352
:102ED000E2966CAD7DAD8EAD9FADE2970E9422046F
:102EE00091E0291A31086A0C7B1C4C0C5D1C8E0C7D
:102EF0009F1C21143104B9F6A4E1AA9D1001AB9DD9
:102F0000300C1124AC9D2001AD9D500C1124AE9DC0
:102F10003001AF9D700C112485E1882E912CC101E8
:102F2000B8010E94151D89E00E942703C201B80163
:102F30000E94151D87E00E942703C301B8010E946B
:102F4000151D88E00E942703E2966CAD7DAD8EAD25
:102F50009FADE2970E942204B1E08B1A91082A18D3
:102F60003B084C185D086E187F0881149104B9F66F
:102F700077CF0E948C0DE8CD8FEF9FEF1BCECE0157
:102F800001960E948C0D4CCE0E94E4086093580676
:102F90007093590680935A0690935B066DE674E031
:102FA00088EA9AE00E947A0D60E674E00E94850D3E
:102FB0000E94290990935506809354066DE674E0AB
:102FC00088EA9AE00E947A0D64E774E00E94850D19
:102FD0000E94290990935706809356066DE674E087
:102FE00088EA9AE00E947A0D60E874E00E94850DFC
:102FF0000E94290990934F0680934E066DE674E077
:1030000088EA9AE00E947A0D69E874E00E94850DD2
:103010000E94290990935106809350066DE674E052
:1030200088EA9AE00E947A0D64E974E00E94850DB6
:103030000E94290990935306809352066EE974E02A
:1030400082E898E00E941C0A69E272E082E898E057
:103050000E941C0A62EC74E082E898E00E94930BE4
:10306000609158067091590680915A0690915B06BE
:1030700042E00E94A00A69E272E082E898E00E94C1
:103080001C0A6DEC74E082E898E00E94930B80913A
:103090005406909155060E946C0A6BED74E082E82C
:1030A00098E00E94930B80915606909157060E94DB
:1030B0006C0A68EE74E082E898E00E94930B8091BD
:1030C0004E0690914F060E946C0A62EF74E082E80F
:1030D00098E00E94930B80915006909151060E94B7
:1030E0006C0A6EEF74E082E898E00E94930B809186
:1030F0005206909153060E946C0A80915806909156
:103100005906A0915A06B0915B06EA968CAF9DAF26
:10311000AEAFBFAFEA970BCE8091540690915506A3
:10312000892B61F1E6966CAD7DAD8EAD9FADE697D6
:103130000E942204B50189E00E942703B60187E0BE
:103140000E942703B70188E00E942703E6966CAD32
:103150007DAD8EAD9FADE6970E94220470E060E0E9
:1031600089E00E94270370E060E087E00E94270367
:1031700070E060E088E00E94270372CEB50189E02C
:103180000E942703B60187E00E942703B701F2CF10
:10319000CE0188599F4F0E949E0D0E94AD05CE0121
:1031A00088599F4F0E94280E6AE070E080E090E00E
:1031B0000E94220485E696E00E94F404181619067F
:1031C0000CF0C6CC6AE070E080E090E00E9422043F
:1031D000CE0101960E94280E0E94A60497FD91CC74
:1031E000A3968FAFA397A4961FAEA497ED80FE8001
:1031F000FFEFEF1AFF0AB701CE0101960E94DF0D23
:10320000882351F329813A818D819E81BE016E59B7
:103210007F4F820F931F0E94811FFE82ED82DCCFC1
:1032200083E090E00E945C06CE0101960E949E0D14
:1032300004E110E0B4CF61E775E088EA9AE00E940B
:103240007A0D68E775E088EA9AE00E947A0D6DE6EB
:1032500074E088EA9AE00E947A0D6BE775E00E94BC
:10326000850D009709F090CE60E070E0CB018ECE26
:1032700089ED9BE00C949E0D283008F027E0332761
:10328000DA01990F311D87FD916000966105710586
:1032900039F432602E5F3D9330E32A95E1F70895CB
:1032A0009F3F30F080387105610509F03C5F3C5F5D
:1032B0003D93913008F08068911DDF93CF931F9369
:1032C0000F93FF92EF92192F987F9695E92F96957D
:1032D0009695E90FFF27EE50FE4F99273327EE24EE
:1032E000FF24A701E70105900894079428F4360FFE
:1032F000E71EF81E491F511D660F771F881F991F73
:103300000694A1F70590079428F4E70EF81E491FCC
:10331000561FC11D770F881F991F661F0694A1F7BE
:103320000590079428F4F80E491F561FC71FD11D9A
:10333000880F991F661F771F0694A1F705900794C1
:1033400020F4490F561FC71FD81F990F661F771FFC
:10335000881F0694A9F784911095177041F0D695AF
:10336000C79557954795F794E7941A95C1F7E8E9FB
:10337000F1E06894159015913591659195910590BE
:103380007FE27395E118F10A430B560BC90BD00984
:10339000C0F7E10CF11E431F561FC91FD01D7EF45C
:1033A000703311F48A95E6CFE894015030F0080F9D
:1033B0000AF40027021708F4202F2395022F7A33EE
:1033C00028F079E37D932A95E9F710C07D932A953B
:1033D00089F6069497956795379517951794E11890
:1033E000F10A430B560BC90BD00998F023957E9137
:1033F00073957A3308F070E37C932013B8F77E91CD
:1034000070617D9330F0839571E37D9370E32A952D
:10341000E1F71124EF90FF900F911F91CF91DF9171
:10342000992787FD90950895FC01059061507040A3
:103430000110D8F7809590958E0F9F1F0895FC017D
:103440006150704001900110D8F7809590958E0FD3
:103450009F1F08950F931F93CF93DF93182F092F6A
:10346000EB018B8181FD09C01FEF0FEF812F902FA2
:10347000DF91CF911F910F91089582FF14C02E818B
:103480003F818C819D81281739073CF4E881F981BF
:10349000CF0101969983888310838E819F81019645
:1034A0009F838E83E3CFE885F985812F1995892B3A
:1034B000A1F3DACFFA01AA27283051F1203181F1A6
:1034C000E8946F936E7F6E5F7F4F8F4F9F4FAF4F2C
:1034D000B1E03ED0B4E03CD0670F781F891F9A1F3F
:1034E000A11D680F791F8A1F911DA11D6A0F711DF3
:1034F000811D911DA11D20D009F468943F912AE0FF
:10350000269F11243019305D3193DEF6CF010895E6
:10351000462F4770405D4193B3E00FD0C9F7F6CF17
:10352000462F4F70405D4A3318F0495D31FD4052DF
:10353000419302D0A9F7EACFB4E0A6959795879575
:1035400077956795BA95C9F7009761057105089554
:103550009B01AC010A2E0694579547953795279500
:10356000BA95C9F7620F731F841F951FA01D089598
:103570000E94FA1A08F481E00895E89409C097FBC4
:103580003EF490958095709561957F4F8F4F9F4F3A
:103590009923A9F0F92F96E9BB279395F69587957E
:1035A00077956795B795F111F8CFFAF4BB0F11F441
:1035B00060FF1BC06F5F7F4F8F4F9F4F16C08823E8
:1035C00011F096E911C0772321F09EE8872F762F1E
:1035D00005C0662371F096E8862F70E060E02AF05F
:1035E0009A95660F771F881FDAF7880F969587954B
:1035F00097F90895990F0008550FAA0BE0E8FEEF20
:1036000016161706E807F907C0F012161306E407A6
:10361000F50798F0621B730B840B950B39F40A269F
:1036200061F0232B242B252B21F408950A2609F47D
:10363000A140A6958FEF811D811D08950E94311B29
:103640000C94A21B0E94941B38F00E949B1B20F03C
:10365000952311F00C948B1B0C94911B11240C944A
:10366000D61B0E94B31B70F3959FC1F3950F50E0DA
:10367000551F629FF001729FBB27F00DB11D639F24
:10368000AA27F00DB11DAA1F649F6627B00DA11DCA
:10369000661F829F2227B00DA11D621F739FB00D70
:1036A000A11D621F839FA00D611D221F749F3327E0
:1036B000A00D611D231F849F600D211D822F762F79
:1036C0006A2F11249F5750409AF0F1F088234AF056
:1036D000EE0FFF1FBB1F661F771F881F91505040C2
:1036E000A9F79E3F510580F00C948B1B0C94D61BC0
:1036F0005F3FE4F3983ED4F3869577956795B79549
:10370000F795E7959F5FC1F7FE2B880F911D969562
:10371000879597F9089597F99F6780E870E060E0D2
:1037200008959FEF80EC089500240A94161617065A
:1037300018060906089500240A94121613061406A2
:1037400005060895092E0394000C11F4882352F005
:10375000BB0F40F4BF2B11F460FF04C06F5F7F4FBD
:103760008F4F9F4F089557FD9058440F551F59F0A4
:103770005F3F71F04795880F97FB991F61F09F3F5E
:1037800079F087950895121613061406551FF2CF87
:103790004695F1DF08C0161617061806991FF1CFD7
:1037A00086957105610508940895E894BB276627FE
:1037B0007727CB0197F908950E94E71BA59F900DED
:1037C000B49F900DA49F800D911D11240895A29F78
:1037D000B001B39FC001A39F700D811D1124911DE5
:1037E000B29F700D811D1124911D08955058BB2763
:1037F000AA270E940E1C0C94A21B0E94941B38F056
:103800000E949B1B20F039F49F3F19F426F40C947E
:10381000911B0EF4E095E7FB0C948B1BE92F0E94A3
:10382000B31B58F3BA17620773078407950720F094
:1038300079F4A6F50C94D51B0EF4E0950B2EBA2F57
:10384000A02D0B01B90190010C01CA01A0011124A6
:10385000FF27591B99F0593F50F4503E68F11A1652
:10386000F040A22F232F342F4427585FF3CF4695E3
:1038700037952795A795F0405395C9F77EF41F1605
:10388000BA0B620B730B840BBAF09150A1F0FF0FCF
:10389000BB1F661F771F881FC2F70EC0BA0F621FBB
:1038A000731F841F48F4879577956795B795F795AB
:1038B0009E3F08F0B0CF9395880F08F09927EE0F40
:1038C0009795879508950E94771C0C94A21B0E94DF
:1038D0009B1B58F00E94941B40F029F45F3F29F095
:1038E0000C948B1B51110C94D61B0C94911B0E94B1
:1038F000B31B68F39923B1F3552391F3951B550B33
:10390000BB27AA2762177307840738F09F5F5F4FB2
:10391000220F331F441FAA1FA9F335D00E2E3AF0F1
:10392000E0E832D091505040E695001CCAF72BD009
:10393000FE2F29D0660F771F881FBB1F261737075A
:103940004807AB07B0E809F0BB0B802DBF01FF278C
:1039500093585F4F3AF09E3F510578F00C948B1BC3
:103960000C94D61B5F3FE4F3983ED4F3869577958D
:103970006795B795F7959F5FC9F7880F911D969545
:10398000879597F90895E1E0660F771F881FBB1FA1
:10399000621773078407BA0720F0621B730B840B4E
:1039A000BA0BEE1F88F7E09508950E94DC1C68941E
:1039B000B1110C94D61B08950E94BB1B88F09F5731
:1039C00098F0B92F9927B751B0F0E1F0660F771F43
:1039D000881F991F1AF0BA95C9F714C0B13091F039
:1039E0000E94D51BB1E008950C94D51B672F782F4A
:1039F0008827B85F39F0B93FCCF3869577956795FE
:103A0000B395D9F73EF490958095709561957F4F69
:103A10008F4F9F4F08950E94FA1A08F48FEF089570
:103A20000E94FA1A880B990B089597FB072E16F43B
:103A3000009407D077FD09D00E94531D07FC05D0E4
:103A40003EF4909581959F4F0895709561957F4FB5
:103A50000895A1E21A2EAA1BBB1BFD010DC0AA1FCF
:103A6000BB1FEE1FFF1FA217B307E407F50720F0E7
:103A7000A21BB30BE40BF50B661F771F881F991F62
:103A80001A9469F760957095809590959B01AC01AB
:103A9000BD01CF010895EE0FFF1F881F8BBF079058
:103AA000F691E02D1994AA1BBB1B51E107C0AA1F78
:103AB000BB1FA617B70710F0A61BB70B881F991FCF
:103AC0005A95A9F780959095BC01CD0108950F9363
:103AD0001F93CF93DF938230910510F482E090E042
:103AE000E091E10BF091E20B30E020E0B0E0A0E0EB
:103AF000309799F42115310509F44AC0281B390B78
:103B000024303105D8F58A819B816115710589F1D1
:103B1000FB0193838283FE0111C0408151810281A8
:103B2000138148175907E0F04817590799F410977F
:103B300061F012960C93129713961C933296CF0154
:103B4000DF91CF911F910F9108950093E10B109396
:103B5000E20BF4CF2115310551F04217530738F02D
:103B6000A901DB019A01BD01DF01F801C1CFEF011D
:103B7000F9CF9093E20B8093E10BCDCFFE01E20FE2
:103B8000F31F819391932250310939832883D7CF32
:103B90002091DF0B3091E00B232B41F420910202A6
:103BA000309103023093E00B2093DF0B2091000251
:103BB000309101022115310541F42DB73EB74091F6
:103BC000040250910502241B350BE091DF0BF091AC
:103BD000E00BE217F307A0F42E1B3F0B2817390761
:103BE00078F0AC014E5F5F4F2417350748F04E0F59
:103BF0005F1F5093E00B4093DF0B819391939FCF16
:103C0000F0E0E0E09CCFCF93DF930097E9F0FC0178
:103C1000329713821282A091E10BB091E20BED0179
:103C200030E020E01097A1F420813181820F931FB2
:103C30002091DF0B3091E00B2817390709F061C0A4
:103C4000F093E00BE093DF0BDF91CF910895EA0151
:103C5000CE17DF07E8F54A815B819E0141155105CA
:103C6000B1F7E901FB83EA8349915991C40FD51F4C
:103C7000EC17FD0761F4808191810296840F951FF6
:103C8000E90199838883828193819B838A83F0E011
:103C9000E0E012968D919C9113970097B9F52D91C4
:103CA0003C911197CD010296820F931F2091DF0B5B
:103CB0003091E00B2817390739F6309751F51092FB
:103CC000E20B1092E10BB093E00BA093DF0BBCCFA3
:103CD000D383C28340815181840F951FC817D907B0
:103CE00061F44E5F5F4F88819981480F591F51835E
:103CF00040838A819B81938382832115310509F05A
:103D0000B0CFF093E20BE093E10B9ECFFD01DC011D
:103D1000C0CF13821282D7CF4F925F926F927F9261
:103D20008F929F92AF92BF92CF92DF92EF92FF92CB
:103D30000F931F93CF93DF938C01009799F4CB01DE
:103D4000DF91CF911F910F91FF90EF90DF90CF9077
:103D5000BF90AF909F908F907F906F905F904F90AB
:103D60000C94671DFC01E60FF71F9C0122503109DE
:103D7000E217F30708F4AEC0D901CD91DC91119799
:103D8000C617D70720F1C530D10578F0CE010497CA
:103D90008617970750F0C61BD70B2297C193D19374
:103DA0006D937C93CF010E94031EC801DF91CF91D8
:103DB0001F910F91FF90EF90DF90CF90BF90AF9049
:103DC0009F908F907F906F905F904F9008955B01D0
:103DD000AC1ABD0A4C018C0E9D1EA091E10BB09156
:103DE000E20B512C412CF12CE12C109731F58091F4
:103DF000DF0B9091E00B8815990509F05CC0461621
:103E0000570608F058C08091000290910102009777
:103E100041F48DB79EB74091040250910502841B76
:103E2000950BE817F90708F055C0F093E00BE09305
:103E3000DF0BF90171836083B8CF8D919C9111974D
:103E400012966C90129713967C901397A815B9054B
:103E500059F56C0142E0C40ED11CCA14DB0420F1F8
:103E6000AC014A195B09DA011296159780F062825B
:103E7000738251834083D9016D937C93E114F104E3
:103E800071F0D7011396FC93EE9312978ECF229682
:103E90008C0F9D1FF90191838083F301EFCFF09385
:103EA000E20BE093E10B81CF4816590608F42C0190
:103EB0007D01D3019ACFCB010E94671D7C01009741
:103EC00049F0AE01B8010E946D1FC8010E94031E97
:103ED00087016BCF10E000E068CFFB01DC0102C07E
:103EE00001900D9241505040D8F70895FC01819106
:103EF000861721F08823D9F7992708953197CF01A4
:103F00000895FB01DC0101900D920020E1F7089576
:103F1000FB0151915523A9F0BF01DC014D914517DB
:103F20004111E1F759F4CD010190002049F04D9184
:103F300040154111C9F3FB014111EFCF81E090E041
:103F4000019708950F931F93CF93DF93CDB7DEB7FB
:103F50002E970FB6F894DEBF0FBECDBF0E891F8916
:103F6000888D998D26E02C831A83098397FF02C0E0
:103F700080E090E801979E838D83AE01445E5F4FA1
:103F80006A8D7B8DCE0101960E94BC0F4D815E81B2
:103F900057FD0AC02F813885421753070CF49A0148
:103FA000020F131FF80110822E960FB6F894DEBF91
:103FB0000FBECDBFDF91CF911F910F91089512E0F9
:103FC000C7E1D2E000E006C0802FFE010E944B1D39
:103FD0002196011DC831D10780E00807A9F7F894A0
:023FE000FFCF11
:103FE2000000E30B8000000000002E05560483044D
:103FF2008D05F4049304E6042F2F22225C5C6208F0
:10400200660C6E0A720D7409000D0A006E616E0074
:10401200696E66006F76660074727565006E756C07
:104022006C004F4B0041540D0041542B5245424FFE
:104032004F540D0041542B55415254453D4F464675
:104042000D0041542B574556454E543D4F4E0D00E1
:10405200313230393032313700786D0041542B57CC
:104062004A41503D25732C25730D002B574556456B
:104072004E543A53544154494F4E5F5550003535D2
:10408200323033463642413241414545414435346E
:1040920032313630323932394231433346313237B6
:1040A200413730333233006B3076366F6C5A794990
:1040B20055380033636F6C6F725F6C6967687400A8
:1040C20041542B4D515454415554483D2573262596
:1040D200732C25730D00363636360041542B4D5164
:1040E20054544349443D25737C7365637572656D11
:1040F2006F64653D335C2C7369676E6D6574686FC0
:10410200643D686D6163736861315C2C74696D65CF
:104112007374616D703D25737C0D0041542B4D51BC
:104122005454534F434B3D25732E696F742D617365
:104132002D6D7174742E636E2D7368616E67686184
:10414200692E616C6979756E63732E636F6D2C31A4
:104152003838330D0041542B4D5154544155544F6E
:1041620053544152543D4F46460D0041542B4D513C
:1041720054544B454550414C4956453D3530300D20
:10418200002B4D5154544556454E543A434F4E4ED2
:104192004543542C535543434553530041542B4DEF
:1041A20051545453544152540D0041542B4D5154C7
:1041B200545055423D2F7379732F25732F25732F3A
:1041C2007468696E672F6576656E742F70726F7092
:1041D200657274792F706F73742C310D0041542BFA
:1041E2004D5154545355423D322C2F7379732F2520
:1041F200732F25732F7468696E672F7365727669E2
:1042020063652F70726F70657274792F7365742C89
:10421200310D002B4D5154544556454E543A322CD3
:104222005355425343524942452C535543434553F8
:10423200530041542B4D515454434C4F53450D00A0
:104242004973466C69636B6572696E67007061726F
:10425200616D73004973427265617468696E6700CB
:10426200436F6C6F7252656400436F6C6F7247727A
:1042720065656E00436F6C6F72426C7565003D3D03
:104282003D3D3D3D3D3D3D3D3D3D3D3D53746172B6
:10429200743D3D3D3D3D3D3D3D3D3D3D3D3D3D3D15
:1042A2003D004672657175656E63793A00497346E1
:1042B2006C69636B6572696E673A00497342726535
:1042C200617468696E673A00436F6C6F725265641D
:1042D2003A00436F6C6F72477265656E3A00436FC6
:1042E2006C6F72426C75653A0064656C61795F73DC
:1042F20065636F6E6473286D73293A004973427265
:1043020065617468696E6720616E64204973466CEA
:1043120069636B6572696E672063616E27742062E0
:1043220065207472756520617420746865207361FC
:104332006D652074696D652C7365742049734272D2
:1043420065617468696E6720746F2066616C73655D
:10435200006D6574686F640069640046726571750A
:06436200656E63790000A6
:00000001FF
